:100000000C9435000C945D000C945D000C945D0024
:100010000C945D000C945D000C945D000C94350113
:100020000C945D000C945D000C945D000C945D00DC
:100030000C945D000C945D000C945D000C945D00CC
:100040000C945D000C945D000C945D000C945D00BC
:100050000C945D000C945D000C945D000C945D00AC
:100060000C945D000C945D00DA0311241FBECFEFE9
:10007000D8E0DEBFCDBF11E0A0E0B1E0ECE7FAE0F0
:1000800002C005900D92AE34B107D9F722E0AEE47C
:10009000B1E001C01D92AF35B207E1F710E0C5E352
:1000A000D0E004C02197FE010E94DE03C433D107D3
:1000B000C9F70E945F000C943C050C940000DF938C
:1000C000CF93CDB7DEB70E9465030C946500089509
:1000D000E7E5F1E080EC8E0F11928E13FDCF0895CD
:1000E000AC011092560187E591E090935101809305
:1000F000500110925301109252019FEF98B917B816
:100100002EEF2AB92BB98FE384B995B996B19F73B5
:100110009F3319F01092550103C081E0809355017F
:100120001092540110924F0110924E019BB19C6F9E
:100130009BB995B1916195B9CA010E94680081E0AF
:100140008DBD1CBC82E08093B0008093B1009AE822
:100150009093B3008093700078940895CF93DF93C9
:10016000E901E42F88E1689FE00D11248A81AE2F18
:10017000B0E0A95ABE4F8C938981A8E0AE0FB0E0E1
:10018000A95ABE4F8C938881E05FF0E0E95AFE4F98
:100190008083DF91CF91089588E1689FF001112459
:1001A000E95AFE4FE40FF11D8089089588E1689FA8
:1001B000F0011124E95AFE4FE40FF11D80850895E6
:1001C00088E1689FF0011124E95AFE4FE40FF11D08
:1001D00080810895E42F88E1689FE00D1124AE2FFF
:1001E000B0E0A95ABE4F1C92A8E0AE0FB0E0A95AE9
:1001F000BE4F1C92E05FF0E0E95AFE4F1082089576
:1002000086B180958F730895662379F080915501AA
:10021000882359F081E48093800081E180938100FC
:1002200081E080935401219A089510925401109214
:100230008000662321F080E88093810002C0109244
:1002400081002198299A0895CF93DF93EA01709352
:1002500089006093880061E00E940401D0934F01FF
:10026000C0934E01DF91CF9108951F920F920FB668
:100270000F9211242F933F938F939F93EF93FF93AC
:10028000809152018F5F8F3018F4809352012AC001
:1002900010925201809153018F5F809353018830F7
:1002A00028F01092530187E591E005C0809150013C
:1002B0009091510148969093510180935001809103
:1002C0004E0190914F01009769F0019790934F0173
:1002D00080934E01892B31F4109280002198299A45
:1002E00010928100E0915001F091510180915201F2
:1002F0009BB19C6F9BB995B1916195B990E59CBDFF
:100300002091530130E0280F311D232B21F49091CF
:1003100056019EBD01C01EBC9789891710F490E854
:1003200001C090E02689821708F49064258982171D
:1003300008F490622489821708F490612389821757
:1003400008F498602289821708F494602189821742
:1003500008F492602089821708F491609EBD978509
:10036000891710F490E801C090E02685821708F400
:1003700090642585821708F490622485821708F41A
:1003800090612385821708F498602285821708F40B
:1003900094602185821708F492602085821708F402
:1003A00091609EBD9781891710F490E801C090E09C
:1003B0002681821708F490642581821708F49062E0
:1003C0002481821708F490612381821708F49860D1
:1003D0002281821708F494602181821708F49260C8
:1003E0002081821708F491600DB407FEFDCF9EBDF9
:1003F00080915301882379F0813081F029E030E049
:10040000281B310981E090E001C0880F2A95EAF7A6
:10041000809590E005C080E09FEE02C080E09EEFF6
:100420000DB407FEFDCF2A9A20915301223020F00F
:100430009BB189238BB903C085B1892385B92A98DB
:100440001CBCFF91EF919F918F913F912F910F9045
:100450000FBE0F901F9018958EE592E00E9400014C
:10046000982F917090931B02982F927090931C027A
:10047000982F947090931A02982F98709093190265
:10048000982F907190931802982F90729093170262
:1004900080931D0208958EE592E00E9400019091E4
:1004A0001D0290959823292F217020931B02292F3C
:1004B000227020931C02292F247020931A02292FC6
:1004C000287020931902292F20712093180290720E
:1004D0009093170280931D0208958093560108950A
:1004E0008295982F937344E0949F900111248C7C03
:1004F00086958695282B822F8575880F2A7A2695D2
:10050000282B20935601089528E0829FC0011124D2
:10051000FC01E60FF11DE25EFD4F40830895883037
:1005200058F4683048F498E0899FF0011124E60FF0
:10053000F11DE25EFD4F4083089528E0829FC001D7
:100540001124FC01E60FF11DE25EFD4F808108954C
:100550002EE132E048E080E090E0F901E80FF91F79
:100560001082019688309105C1F74150285F3F4FB6
:100570004111F1CF08950F931F93CF9305E212E03D
:10058000C0E0F801208130E0C901880F991F280FD1
:10059000391F20503F4F47E06C2F8EE592E00E94BC
:1005A000AE00F8013197208130E0C901880F991F12
:1005B000280F391F20503F4F46E06C2F8EE592E008
:1005C0000E94AE00F8013297208130E0C901880F07
:1005D000991F280F391F20503F4F45E06C2F8EE5A3
:1005E00092E00E94AE00F8013397208130E0C9010B
:1005F000880F991F280F391F20503F4F44E06C2F60
:100600008EE592E00E94AE00F8013497208130E040
:10061000C901880F991F280F391F20503F4F43E011
:100620006C2F8EE592E00E94AE00F8013597208194
:1006300030E0C901880F991F280F391F20503F4F04
:1006400042E06C2F8EE592E00E94AE00F8013697F2
:10065000208130E0C901880F991F280F391F2050D1
:100660003F4F41E06C2F8EE592E00E94AE00F80112
:100670003797208130E0C901880F991F280F391F53
:1006800020503F4F40E06C2F8EE592E00E94AE007C
:10069000CF5F085F1F4FC83009F073CFCF911F9114
:1006A0000F910895AB01BC018EE592E00C942401FA
:1006B00090E0FC01EE0FFF1F8E0F9F1FFC01E0502A
:1006C000FF4F6083418322830895CF93DF931F926E
:1006D000CDB7DEB7CE0101960E9470008EE592E0A4
:1006E0000E94000180931D0240E050E060E070E055
:1006F0008EE592E00E94240160E08EE592E00E9487
:1007000004010F90DF91CF9108958F929F92AF9245
:10071000BF92CF92DF92EF92FF92BC0180E090E017
:100720000E9418044B015C0120E030E04AE755E4E8
:100730000E94A7046B017C0120E030E040E85FE309
:100740000E94E40387FD24C020E03FEF4FE757E419
:10075000C701B6010E94A2041816ACF420E030E0F4
:1007600040E251E4C501B4010E94A7040E94E903DC
:1007700020E931E06115710581F0C9010197F1F7B8
:1007800061507109F7CFC701B6010E94E90302C0A9
:1007900061E070E0CB010197F1F7FF90EF90DF90FF
:1007A000CF90BF90AF909F908F9008958EE592E08C
:1007B0000C9400018EE592E00C947000EE0FFF1F88
:1007C0000590F491E02D09940E94550408F481E00D
:1007D00008950E94810488F09F5798F0B92F9927B7
:1007E000B751B0F0E1F0660F771F881F991F1AF01C
:1007F000BA95C9F714C0B13091F00E949B04B1E0E2
:1008000008950C949B04672F782F8827B85F39F0E0
:10081000B93FCCF3869577956795B395D9F73EF4B4
:1008200090958095709561957F4F8F4F9F4F08955C
:10083000E89409C097FB3EF490958095709561957A
:100840007F4F8F4F9F4F9923A9F0F92F96E9BB2730
:100850009395F695879577956795B795F111F8CFAC
:10086000FAF4BB0F11F460FF1BC06F5F7F4F8F4F17
:100870009F4F16C0882311F096E911C0772321F00D
:100880009EE8872F762F05C0662371F096E8862FA5
:1008900070E060E02AF09A95660F771F881FDAF7FC
:1008A000880F9695879597F90895990F0008550F29
:1008B000AA0BE0E8FEEF16161706E807F907C0F0E6
:1008C00012161306E407F50798F0621B730B840BEE
:1008D000950B39F40A2661F0232B242B252B21F4C8
:1008E00008950A2609F4A140A6958FEF811D811D68
:1008F000089557FD9058440F551F59F05F3F71F010
:100900004795880F97FB991F61F09F3F79F0879576
:100910000895121613061406551FF2CF4695F1DFFF
:1009200008C0161617061806991FF1CF869571058F
:10093000610508940895E894BB2766277727CB01C3
:1009400097F908950E94550408F48FEF08950E94C6
:10095000BA040C942B050E941D0538F00E94240552
:1009600020F0952311F00C9414050C941A05112411
:100970000C949C040E94790470F3959FC1F3950F29
:1009800050E0551F629FF001729FBB27F00DB11D13
:10099000639FAA27F00DB11DAA1F649F6627B00DA3
:1009A000A11D661F829F2227B00DA11D621F739F8C
:1009B000B00DA11D621F839FA00D611D221F749F9A
:1009C0003327A00D611D231F849F600D211D822FE1
:1009D000762F6A2F11249F5750409AF0F1F0882308
:1009E0004AF0EE0FFF1FBB1F661F771F881F915035
:1009F0005040A9F79E3F510580F00C9414050C94CB
:100A00009C045F3FE4F3983ED4F386957795679511
:100A1000B795F795E7959F5FC1F7FE2B880F911D5E
:100A20009695879597F9089597F99F6780E870E004
:100A300060E008959FEF80EC089500240A94161654
:100A4000170618060906089500240A9412161306BC
:100A5000140605060895092E0394000C11F488234A
:100A600052F0BB0F40F4BF2B11F460FF04C06F5F66
:0C0A70007F4F8F4F9F4F0895F894FFCFE9
:100A7C000000000600000C0500070A00000F000033
:100A8C000005080004030F02010000010100010130
:100A9C00000001000003010000010200010F0F0F14
:100AAC00000000000000000000000000000000003A
:0E0ABC0000000000000000000000000000002C
:00000001FF
